:1000000053C0F5C26CC06BC06AC069C068C067C02D
:1000100066C065C064C063C062C061C060C05FC0CC
:100020005EC05DC05CC007634236B79BD8A71A3973
:10003000685618AEBAAB558C1D3CB7CC5763BD6D36
:10004000EDFD753EF6177231BF000000803F0800DD
:100050000000BE922449123EABAAAA2ABECDCCCC47
:100060004C3E00000080BEABAAAAAA3E00000000E1
:10007000BF000000803F0000000000084178D3BBB3
:100080004387D1133D190E3CC3BD4282AD2B3E6860
:10009000EC8276BED98FE1A93E4C80EFFFBE01C451
:1000A000FF7F3F000000000011241FBECFE5D4E019
:1000B000DEBFCDBF10E0A0E6B0E0ECEFFDE002C097
:1000C00005900D92A637B107D9F720E0A6E7B0E07A
:1000D00001C01D92A438B207E1F710D38DC690CFAE
:1000E0008D9A8E9A8F9A08959598969820E130E08F
:1000F00040E050E8BC0164237523672B51F0979AC8
:10010000959A5695479595982150310999F7969A61
:1001100008959798F5CF8FEF9FEFE6DF2FE78AE1FD
:1001200096E0215080409040E1F700C0000080E060
:100130009FEFDACFD9CF90E09960D6CF90E09B6067
:10014000D3CF90E09A60D0CFCF92DF92EF92FF9220
:100150001F93CF93DF93EC01E12CFF24F39410E085
:100160009AE0C92ED12C209719F48FE0111104C008
:10017000CE01B601C6D2EB019701282BC901B4DF2D
:100180001F5FF394153079F7DF91CF911F91FF90A6
:10019000EF90DF90CF900895CF92DF92EF92FF9291
:1001A0000F931F93CF93DF936B017C01042F642F78
:1001B00070E090E080E0FDD29B01AC0160E070E077
:1001C00080E291E4BFD3A701960159D3C1D2EB01DC
:1001D000E12CFF24F39410E09AE0C92ED12C9FE08B
:1001E000209741F0CE01B601A0D2982FEB01011368
:1001F00001C090689701292BC90176DF1F5FF39436
:10020000153069F7DF91CF911F910F91FF90EF901B
:10021000DF90CF90089580E09CE066DF2FE789EAC9
:1002200093E0215080409040E1F700C0000081E061
:100230009CE05ADF2FE789EA93E02150804090400C
:10024000E1F700C000000895949A939AA89A63DF9A
:1002500094989398A898089585B7826085BF85B7CC
:100260008E7F85BF8BB780648BBF8FB780688FBF51
:10027000A09A8A98A598A298A398A498B898B99893
:10028000A19A8C9A8B9A2CDFDFDF2FEF84E39CE01E
:10029000215080409040E1F700C0000085E04EDF33
:1002A0008FE149DF8AE04DDF81E09CE043CF0F938F
:1002B0001F93CF93DF9380E03EDF05E610E0C0E0C0
:1002C000D1E0F80181918F019E01282BC9010CDF3B
:1002D000D395C11536E0D307A1F78FEF94E3ECE097
:1002E00081509040E040E1F700C000008FE1DF91D5
:1002F000CF911F910F911FCF0F931F93CF93DF9338
:1003000080E019DF00E610E0C0E0D1E0F801819163
:100310008F019E01282BC901E7DED395C11536E078
:10032000D307A1F78FEF93ECE9E081509040E040D4
:10033000E1F700C000008FE1FEDE1092770010921E
:100340007600DF91CF911F910F9108950F931F9326
:10035000CF93DF9380E0EFDE0AE610E0C0E0D1E06B
:10036000F80181918F019E01282BC901BDDED39533
:10037000C11536E0D307A1F78FEF94E3ECE081508D
:100380009040E040E1F700C000008FE1DF91CF91A5
:100390001F910F91D0CE8091780090917900892B98
:1003A000B9F4809182009091830064E670E0BDD141
:1003B000CB016AE070E0B9D1893059F080918200B8
:1003C000909183008C599F4F90938300809382007B
:1003D0000895809182009091830084589340F4CFD7
:1003E00080917E0090917F0021E030E0009711F035
:1003F00030E020E030937F0020937E00892B11F4C1
:10040000949A55CF9498A2CF8091780090917900DA
:10041000892BB9F4809182009091830068EE73E09B
:1004200084D1CB016AE070E080D1893059F08091AD
:1004300082009091830088519C4F90938300809319
:1004400082000895809182009091830088529342A7
:10045000F4CF8091780090917900892BB1F480914C
:100460008200909183002AE030E0B9015ED1CB0197
:10047000B9015BD1893051F0809182009091830065
:100480000A96909383008093820008958091820061
:10049000909183008A559109F4CF809178009091D2
:1004A0007900892B91F480918200909183006AE019
:1004B00070E03BD1893051F08091820090918300AF
:1004C000019690938300809382000895809182002A
:1004D000909183000997F5CFAF92BF92CF92DF92B0
:1004E000EF92FF920F931F93CF93DF9383B3EE248A
:1004F000E394982F947082FFE12C83B3FF24F3944C
:10050000282F2870A22E83FFF12C83B301E0282F1F
:100510002071B22E84FF00E0C6B3C17086B311E033
:10052000282F2270C22E81FF10E083B3D1E0282F44
:100530002072D22E85FFD0E0809174008E1519F0C4
:10054000911101C028DF809173008F1519F0A1105F
:1005500001C05ADF80917200801719F0B11001C0FC
:100560003FDF80917100C81719F0C11101C071DF20
:1005700080917000811719F0C11001C08EDF809149
:100580006F008D1781F0D1100EC081E090E0909344
:100590007B0080937A0080918200909183009093F9
:1005A000810080938000E0927400F09273000093C9
:1005B0007200C093710010937000D0936F00DF91B0
:1005C000CF911F910F91FF90EF90DF90CF90BF9050
:1005D000AF90089581DF8091760090917700892B0C
:1005E00009F08ACE8091820090918300ADCD1F9258
:1005F0000F920FB60F9211242F933F938F939F93D7
:1006000080917E0090917F00892B49F18091780044
:1006100090917900892B19F180918200909183004B
:100620008130910569F490937B0080937A008091EA
:1006300080009091810001969093830080938200C6
:100640008091820090918300892B49F080918200F3
:100650009091830001979093830080938200809112
:100660007A0090917B00892B69F18FE19EE40197DC
:10067000F1F700C000008091780090917900892BFB
:1006800071F58091820090918300892B19F0A99ACD
:10069000939A06C080917E0090917F00892BB9F3D8
:1006A00081E090E02091780030917900232B11F0C7
:1006B00090E080E0909379008093780010927B0026
:1006C00010927A0085B391E0892785BB9F918F9125
:1006D0003F912F910F900FBE0F901F901895A998E2
:1006E000939880917E0090917F00892BC9F281E0E0
:1006F00090E09093770080937600D2CFADDD6ADFF3
:10070000FECFAA1BBB1B51E107C0AA1FBB1FA61728
:10071000B70710F0A61BB70B881F991F5A95A9F7AA
:1007200080959095BC01CD01089597FB072E16F496
:10073000009406D077FD08D0E4DF07FC05D03EF436
:10074000909581959F4F0895709561957F4F08957D
:1007500004D06894B1118DC0089570D088F09F576F
:1007600090F0B92F9927B751A0F0D1F0660F771FFD
:10077000881F991F1AF0BA95C9F712C0B13081F0DD
:1007800077D0B1E0089574C0672F782F8827B85FBD
:1007900039F0B93FCCF3869577956795B395D9F73E
:1007A0003EF490958095709561957F4F8F4F9F4F48
:1007B0000895E89409C097FB3EF490958095709554
:1007C00061957F4F8F4F9F4F9923A9F0F92F96E99D
:1007D000BB279395F695879577956795B795F11112
:1007E000F8CFFAF4BB0F11F460FF1BC06F5F7F4FAF
:1007F0008F4F9F4F16C0882311F096E911C07723C1
:1008000021F09EE8872F762F05C0662371F096E8C9
:10081000862F70E060E02AF09A95660F771F881F98
:10082000DAF7880F9695879597F9089557FD9058B0
:10083000440F551F59F05F3F71F04795880F97FBA4
:10084000991F61F09F3F79F087950895121613065E
:100850001406551FF2CF4695F1DF08C0161617068D
:100860001806991FF1CF86957105610508940895C2
:10087000E894BB2766277727CB0197F908950BD01B
:100880001AC10BD128F010D118F0952309F0D7C068
:10089000DCC01124EECFCADFA0F3959FD1F3950FF2
:1008A00050E0551F629FF001729FBB27F00DB11DF4
:1008B000639FAA27F00DB11DAA1F649F6627B00D84
:1008C000A11D661F829F2227B00DA11D621F739F6D
:1008D000B00DA11D621F839FA00D611D221F749F7B
:1008E0003327A00D611D231F849F600D211D822FC2
:1008F000762F6A2F11249F5750408AF0E1F0882309
:100900004AF0EE0FFF1FBB1F661F771F881F915015
:100910005040A9F79E3F510570F091C0AACF5F3FAC
:10092000ECF3983EDCF3869577956795B795F79548
:10093000E7959F5FC1F7FE2B880F911D96958795D0
:1009400097F90895FA01EE0FFF1F30962105310542
:1009500099F16115710561F48038BFE39B0749F196
:1009600068949038810561F08038BFEF9B0741F0B3
:10097000992342F5FF3FE1053105210511F1E89486
:100980000894E795D901AA2329F4AB2FBE2FF85F6D
:10099000D0F310C0FF5F70F4A695E0F7F73950F080
:1009A00019F0FF3A38F49F779F930CD00F9007FC13
:1009B000905808953EF049C060E070E080E89FE301
:1009C00008954FE79F775F934F933F932F93C6D040
:1009D0002F913F914F915F9152DF05C019F40EF0B6
:1009E0002EC046CF32C02ADFC8F39638C0F707F8CA
:1009F0000F92E8942BE33AEA48EB5FE74EDF0F9261
:100A00000F920F924DB75EB70F92E8D0E6E2F0E09A
:100A10001FD04F915F91EF91FF91E595EE1FFF1F62
:100A200049F0FE57E0684427EE0F441FFA95E1F7BE
:100A30004195550B5AD00F9007FE4EC0089597F977
:100A40009F6780E870E060E008959FEF80EC089574
:100A5000DF93CF931F930F93FF92EF92DF927B016F
:100A60008C01689405C0DA2EEF0115DFFE01E894D1
:100A7000A5912591359145915591AEF3EF01F3D0B4
:100A8000FE019701A801DA9479F7DF90EF90FF90CB
:100A90000F911F91CF91DF91089500240A941616AB
:100AA000170618060906089500240A94121613065C
:100AB000140605060895092E0394000C11F48823EA
:100AC00052F0BB0F40F4BF2B11F460FF04C06F5F06
:100AD0007F4F8F4F9F4F08959B01AC0160E070E006
:100AE00080E89FE313C1ABCF79C1A8DEE8F3992377
:100AF000D9F3940F511DBBF39150504094F059F02D
:100B0000882332F0660F771F881F91505040C1F73D
:100B10009E3F510544F7880F911D9695879597F94B
:100B200008955F3FACF0983E9CF0BB278695779583
:100B30006795B79508F4B1609395C1F7BB0F58F767
:100B400011F460FFE8CF6F5F7F4F8F4F9F4FE3CF70
:100B500090CE0EF043C179CF689471CF6FDEC8F3A9
:100B60009923D1F3C6F3DF93CF931F930F93FF9293
:100B7000C92FDD2788232AF02197660F771F881F4A
:100B8000DAF720E030E040E85FEB9FE3883920F0BF
:100B9000803E30F021968F7755D0EEE4F0E003C030
:100BA00051D0EBE7F0E054DF8B01BE01EC01FB2EEE
:100BB0006F5771097595771F880B990BFCDD28E13C
:100BC00032E741E35FE367DEAF2D9801AE01FF90AE
:100BD0000F911F91CF91DF9146D06DCFFA01DC01CB
:100BE000AA0FBB1F9B01AC01BF5728F42227332754
:100BF000442750781FC0B75188F4AB2F0024469586
:100C000037952795011CA395D2F3002069F0220F98
:100C1000331F441FB395DAF30DD013C06130710553
:100C2000A0E88A07B94630F49B01AC016627772714
:100C300088279078309621F0208331834283538334
:100C400008955058BB27AA270ED035CF26DF30F0A5
:100C50002BDF20F031F49F3F11F41EF4F6CE0EF49A
:100C6000E095E7FBECCEE92FE1DD80F3BA176207F0
:100C700073078407950718F071F49EF5F9CD0EF40B
:100C8000E0950B2EBA2FA02D0B01B90190010C019C
:100C9000CA01A0011124FF27591B99F0593F50F4B4
:100CA000503E68F11A16F040A22F232F342F44270C
:100CB000585FF3CF469537952795A795F040539504
:100CC000C9F77EF41F16BA0B620B730B840BBAF0D4
:100CD0009150A1F0FF0FBB1F661F771F881FC2F73F
:100CE0000EC0BA0F621F731F841F48F48795779553
:100CF0006795B795F7959E3F08F0B3CF9395880F0A
:100D000008F09927EE0F9795879508950CD0D3CECC
:100D1000CBDE40F0C2DE30F021F45F3F19F08FCE21
:100D20005111A7CD92CE82DD98F39923C9F35523B3
:100D3000B1F3951B550BBB27AA27621773078407CE
:100D400038F09F5F5F4F220F331F441FAA1FA9F384
:100D500033D00E2E3AF0E0E830D091505040E69576
:100D6000001CCAF729D0FE2F27D0660F771F881FD7
:100D7000BB1F261737074807AB07B0E809F0BB0BC6
:100D8000802DBF01FF2793585F4F2AF09E3F5105EA
:100D900068F055CE6ECD5F3FECF3983EDCF3869560
:100DA00077956795B795F7959F5FC9F7880F911D60
:100DB0009695879597F90895E1E0660F771F881F4C
:100DC000BB1F621773078407BA0720F0621B730BFF
:100DD000840BBA0BEE1F88F7E09508959F3F31F022
:100DE000915020F4879577956795B795880F911D59
:0C0DF0009695879597F90895F894FFCF29
:100DFC004F157E3D00007E0F3E77000F374F0001F0
:060E0C00010101010100DB
:00000001FF
